{
  "contractName": "CharacterGenerator",
  "abi": [
    {
      "inputs": [
        {
          "internalType": "address",
          "name": "_receiver",
          "type": "address"
        }
      ],
      "stateMutability": "nonpayable",
      "type": "constructor"
    },
    {
      "inputs": [],
      "name": "creator",
      "outputs": [
        {
          "internalType": "address",
          "name": "",
          "type": "address"
        }
      ],
      "stateMutability": "view",
      "type": "function",
      "constant": true
    },
    {
      "inputs": [],
      "name": "receiver",
      "outputs": [
        {
          "internalType": "address",
          "name": "",
          "type": "address"
        }
      ],
      "stateMutability": "view",
      "type": "function",
      "constant": true
    },
    {
      "inputs": [
        {
          "internalType": "address[]",
          "name": "tokenAddresses",
          "type": "address[]"
        },
        {
          "internalType": "uint256[]",
          "name": "tokenQuantities",
          "type": "uint256[]"
        },
        {
          "internalType": "address",
          "name": "taker",
          "type": "address"
        },
        {
          "internalType": "bytes",
          "name": "signature",
          "type": "bytes"
        }
      ],
      "name": "generate",
      "outputs": [],
      "stateMutability": "nonpayable",
      "type": "function"
    }
  ],
  "bytecode": "0x608060405234801561001057600080fd5b50604051611115380380611115833981810160405281019061003291906100ce565b806000806101000a81548173ffffffffffffffffffffffffffffffffffffffff021916908373ffffffffffffffffffffffffffffffffffffffff16021790555033600160006101000a81548173ffffffffffffffffffffffffffffffffffffffff021916908373ffffffffffffffffffffffffffffffffffffffff16021790555050610140565b6000815190506100c881610129565b92915050565b6000602082840312156100e057600080fd5b60006100ee848285016100b9565b91505092915050565b600061010282610109565b9050919050565b600073ffffffffffffffffffffffffffffffffffffffff82169050919050565b610132816100f7565b811461013d57600080fd5b50565b610fc68061014f6000396000f3fe608060405234801561001057600080fd5b50600436106100415760003560e01c806302d05d3f14610046578063b63d867814610064578063f7260d3e14610080575b600080fd5b61004e61009e565b60405161005b9190610be6565b60405180910390f35b61007e600480360381019061007991906108b2565b6100c4565b005b610088610421565b6040516100959190610be6565b60405180910390f35b600160009054906101000a900473ffffffffffffffffffffffffffffffffffffffff1681565b6000826040516020016100d79190610ba5565b60405160208183030381529060405280519060200120905060006100fa82610445565b90506000610111848361047590919063ffffffff16565b9050600160009054906101000a900473ffffffffffffffffffffffffffffffffffffffff1673ffffffffffffffffffffffffffffffffffffffff168173ffffffffffffffffffffffffffffffffffffffff161461016d57600080fd5b3373ffffffffffffffffffffffffffffffffffffffff168573ffffffffffffffffffffffffffffffffffffffff16146101a557600080fd5b60005b87518110156102e15760008882815181106101ec577f4e487b7100000000000000000000000000000000000000000000000000000000600052603260045260246000fd5b6020026020010151905087828151811061022f577f4e487b7100000000000000000000000000000000000000000000000000000000600052603260045260246000fd5b60200260200101518173ffffffffffffffffffffffffffffffffffffffff1663dd62ed3e33306040518363ffffffff1660e01b8152600401610272929190610c01565b60206040518083038186803b15801561028a57600080fd5b505afa15801561029e573d6000803e3d6000fd5b505050506040513d601f19601f820116820180604052508101906102c29190610986565b10156102cd57600080fd5b5080806102d990610e69565b9150506101a8565b5060005b8751811015610417576000888281518110610329577f4e487b7100000000000000000000000000000000000000000000000000000000600052603260045260246000fd5b602002602001015190508073ffffffffffffffffffffffffffffffffffffffff166323b872dd33308b868151811061038a577f4e487b7100000000000000000000000000000000000000000000000000000000600052603260045260246000fd5b60200260200101516040518463ffffffff1660e01b81526004016103b093929190610c2a565b602060405180830381600087803b1580156103ca57600080fd5b505af11580156103de573d6000803e3d6000fd5b505050506040513d601f19601f82011682018060405250810190610402919061095d565b5050808061040f90610e69565b9150506102e5565b5050505050505050565b60008054906101000a900473ffffffffffffffffffffffffffffffffffffffff1681565b6000816040516020016104589190610bc0565b604051602081830303815290604052805190602001209050919050565b6000806000806041855114156104a2576020850151925060408501519150606085015160001a9050610528565b6040855114156104ec576040850151602086015193507f7fffffffffffffffffffffffffffffffffffffffffffffffffffffffffffffff81169250601b8160ff1c01915050610527565b6040517f08c379a000000000000000000000000000000000000000000000000000000000815260040161051e90610cc6565b60405180910390fd5b5b6105348682858561053f565b935050505092915050565b60007f7fffffffffffffffffffffffffffffff5d576e7357a4501ddfe92f46681b20a08260001c11156105a7576040517f08c379a000000000000000000000000000000000000000000000000000000000815260040161059e90610ce6565b60405180910390fd5b601b8460ff1614806105bc5750601c8460ff16145b6105fb576040517f08c379a00000000000000000000000000000000000000000000000000000000081526004016105f290610d06565b60405180910390fd5b6000600186868686604051600081526020016040526040516106209493929190610c61565b6020604051602081039080840390855afa158015610642573d6000803e3d6000fd5b505050602060405103519050600073ffffffffffffffffffffffffffffffffffffffff168173ffffffffffffffffffffffffffffffffffffffff1614156106be576040517f08c379a00000000000000000000000000000000000000000000000000000000081526004016106b590610ca6565b60405180910390fd5b80915050949350505050565b60006106dd6106d884610d57565b610d26565b905080838252602082019050828560208602820111156106fc57600080fd5b60005b8581101561072c578161071288826107e0565b8452602084019350602083019250506001810190506106ff565b5050509392505050565b600061074961074484610d83565b610d26565b9050808382526020820190508285602086028201111561076857600080fd5b60005b85811015610798578161077e8882610888565b84526020840193506020830192505060018101905061076b565b5050509392505050565b60006107b56107b084610daf565b610d26565b9050828152602081018484840111156107cd57600080fd5b6107d8848285610e5a565b509392505050565b6000813590506107ef81610f4b565b92915050565b600082601f83011261080657600080fd5b81356108168482602086016106ca565b91505092915050565b600082601f83011261083057600080fd5b8135610840848260208601610736565b91505092915050565b60008151905061085881610f62565b92915050565b600082601f83011261086f57600080fd5b813561087f8482602086016107a2565b91505092915050565b60008135905061089781610f79565b92915050565b6000815190506108ac81610f79565b92915050565b600080600080608085870312156108c857600080fd5b600085013567ffffffffffffffff8111156108e257600080fd5b6108ee878288016107f5565b945050602085013567ffffffffffffffff81111561090b57600080fd5b6109178782880161081f565b9350506040610928878288016107e0565b925050606085013567ffffffffffffffff81111561094557600080fd5b6109518782880161085e565b91505092959194509250565b60006020828403121561096f57600080fd5b600061097d84828501610849565b91505092915050565b60006020828403121561099857600080fd5b60006109a68482850161089d565b91505092915050565b6109b881610dfb565b82525050565b6109cf6109ca82610dfb565b610eb2565b82525050565b6109de81610e19565b82525050565b6109f56109f082610e19565b610ec4565b82525050565b6000610a08601883610ddf565b91507f45434453413a20696e76616c6964207369676e617475726500000000000000006000830152602082019050919050565b6000610a48601f83610ddf565b91507f45434453413a20696e76616c6964207369676e6174757265206c656e677468006000830152602082019050919050565b6000610a88601c83610df0565b91507f19457468657265756d205369676e6564204d6573736167653a0a3332000000006000830152601c82019050919050565b6000610ac8602283610ddf565b91507f45434453413a20696e76616c6964207369676e6174757265202773272076616c60008301527f75650000000000000000000000000000000000000000000000000000000000006020830152604082019050919050565b6000610b2e602283610ddf565b91507f45434453413a20696e76616c6964207369676e6174757265202776272076616c60008301527f75650000000000000000000000000000000000000000000000000000000000006020830152604082019050919050565b610b9081610e43565b82525050565b610b9f81610e4d565b82525050565b6000610bb182846109be565b60148201915081905092915050565b6000610bcb82610a7b565b9150610bd782846109e4565b60208201915081905092915050565b6000602082019050610bfb60008301846109af565b92915050565b6000604082019050610c1660008301856109af565b610c2360208301846109af565b9392505050565b6000606082019050610c3f60008301866109af565b610c4c60208301856109af565b610c596040830184610b87565b949350505050565b6000608082019050610c7660008301876109d5565b610c836020830186610b96565b610c9060408301856109d5565b610c9d60608301846109d5565b95945050505050565b60006020820190508181036000830152610cbf816109fb565b9050919050565b60006020820190508181036000830152610cdf81610a3b565b9050919050565b60006020820190508181036000830152610cff81610abb565b9050919050565b60006020820190508181036000830152610d1f81610b21565b9050919050565b6000604051905081810181811067ffffffffffffffff82111715610d4d57610d4c610f0f565b5b8060405250919050565b600067ffffffffffffffff821115610d7257610d71610f0f565b5b602082029050602081019050919050565b600067ffffffffffffffff821115610d9e57610d9d610f0f565b5b602082029050602081019050919050565b600067ffffffffffffffff821115610dca57610dc9610f0f565b5b601f19601f8301169050602081019050919050565b600082825260208201905092915050565b600081905092915050565b6000610e0682610e23565b9050919050565b60008115159050919050565b6000819050919050565b600073ffffffffffffffffffffffffffffffffffffffff82169050919050565b6000819050919050565b600060ff82169050919050565b82818337600083830152505050565b6000610e7482610e43565b91507fffffffffffffffffffffffffffffffffffffffffffffffffffffffffffffffff821415610ea757610ea6610ee0565b5b600182019050919050565b6000610ebd82610ece565b9050919050565b6000819050919050565b6000610ed982610f3e565b9050919050565b7f4e487b7100000000000000000000000000000000000000000000000000000000600052601160045260246000fd5b7f4e487b7100000000000000000000000000000000000000000000000000000000600052604160045260246000fd5b60008160601b9050919050565b610f5481610dfb565b8114610f5f57600080fd5b50565b610f6b81610e0d565b8114610f7657600080fd5b50565b610f8281610e43565b8114610f8d57600080fd5b5056fea2646970667358221220210fa7a7bfdaceaec98cb46298a1f7b232084dae18428cc067f0238a167e13e664736f6c63430008000033",
  "immutableReferences": {},
  "source": "pragma solidity ^0.8.0;\n\nimport \"@openzeppelin/contracts/token/ERC20/ERC20.sol\";\nimport \"@openzeppelin/contracts/utils/cryptography/ECDSA.sol\";\n\ncontract CharacterGenerator {\n  using ECDSA for bytes32;\n\n  address public receiver;\n  address public creator;\n\n  constructor(address _receiver) {\n    receiver = _receiver;\n    creator = msg.sender;\n  }\n\n  function generate(\n    address[] memory tokenAddresses, \n    uint256[] memory tokenQuantities, \n    address taker,\n    bytes memory signature\n  ) public {\n    bytes32 hash = keccak256(abi.encodePacked(taker));\n    bytes32 messageHash = hash.toEthSignedMessageHash();\n    address signer = messageHash.recover(signature);\n\n    require(signer == creator);\n\n    // Only the specified taker can run this function\n    require(taker == msg.sender);\n    // Check approvals for all tokens before executing transfers\n    for(uint i = 0; i < tokenAddresses.length; i++) {\n      ERC20 token = ERC20(tokenAddresses[i]);\n      require(token.allowance(msg.sender, address(this)) >= tokenQuantities[i]);\n    }\n\n    // Transfer all tokens to self\n    for(uint i = 0; i < tokenAddresses.length; i++) {\n      ERC20 token = ERC20(tokenAddresses[i]);\n      token.transferFrom(msg.sender, address(this), tokenQuantities[i]);\n    }\n  }\n\n}",
  "sourcePath": "/Users/stephen/Projects/ill_intentioned/code/contracts/contracts/CharacterGenerator.sol",
  "compiler": {
    "name": "solc",
    "version": "0.8.0+commit.c7dfd78e.Emscripten.clang"
  },
  "schemaVersion": "3.4.1",
  "updatedAt": "2021-05-26T19:09:15.368Z",
  "networkType": "ethereum",
  "devdoc": {
    "kind": "dev",
    "methods": {},
    "version": 1
  },
  "userdoc": {
    "kind": "user",
    "methods": {},
    "version": 1
  }
}