{
  "contractName": "CharacterGenerator",
  "abi": [
    {
      "inputs": [
        {
          "internalType": "address",
          "name": "_receiver",
          "type": "address"
        }
      ],
      "stateMutability": "nonpayable",
      "type": "constructor"
    },
    {
      "inputs": [],
      "name": "receiver",
      "outputs": [
        {
          "internalType": "address",
          "name": "",
          "type": "address"
        }
      ],
      "stateMutability": "view",
      "type": "function",
      "constant": true
    },
    {
      "inputs": [
        {
          "internalType": "address[]",
          "name": "tokenAddresses",
          "type": "address[]"
        },
        {
          "internalType": "uint256[]",
          "name": "tokenQuantities",
          "type": "uint256[]"
        }
      ],
      "name": "generate",
      "outputs": [],
      "stateMutability": "nonpayable",
      "type": "function"
    }
  ],
  "bytecode": "0x608060405234801561001057600080fd5b506040516107443803806107448339818101604052810190610032919061008d565b806000806101000a81548173ffffffffffffffffffffffffffffffffffffffff021916908373ffffffffffffffffffffffffffffffffffffffff160217905550506100ff565b600081519050610087816100e8565b92915050565b60006020828403121561009f57600080fd5b60006100ad84828501610078565b91505092915050565b60006100c1826100c8565b9050919050565b600073ffffffffffffffffffffffffffffffffffffffff82169050919050565b6100f1816100b6565b81146100fc57600080fd5b50565b6106368061010e6000396000f3fe608060405234801561001057600080fd5b50600436106100365760003560e01c80634321bebb1461003b578063f7260d3e14610057575b600080fd5b6100556004803603810190610050919061033e565b610075565b005b61005f6101af565b60405161006c91906103f1565b60405180910390f35b60005b82518110156101aa5760008382815181106100bc577f4e487b7100000000000000000000000000000000000000000000000000000000600052603260045260246000fd5b602002602001015190508073ffffffffffffffffffffffffffffffffffffffff166323b872dd333086868151811061011d577f4e487b7100000000000000000000000000000000000000000000000000000000600052603260045260246000fd5b60200260200101516040518463ffffffff1660e01b81526004016101439392919061040c565b602060405180830381600087803b15801561015d57600080fd5b505af1158015610171573d6000803e3d6000fd5b505050506040513d601f19601f8201168201806040525081019061019591906103aa565b505080806101a290610514565b915050610078565b505050565b60008054906101000a900473ffffffffffffffffffffffffffffffffffffffff1681565b60006101e66101e184610474565b610443565b9050808382526020820190508285602086028201111561020557600080fd5b60005b85811015610235578161021b88826102ab565b845260208401935060208301925050600181019050610208565b5050509392505050565b600061025261024d846104a0565b610443565b9050808382526020820190508285602086028201111561027157600080fd5b60005b858110156102a157816102878882610329565b845260208401935060208301925050600181019050610274565b5050509392505050565b6000813590506102ba816105bb565b92915050565b600082601f8301126102d157600080fd5b81356102e18482602086016101d3565b91505092915050565b600082601f8301126102fb57600080fd5b813561030b84826020860161023f565b91505092915050565b600081519050610323816105d2565b92915050565b600081359050610338816105e9565b92915050565b6000806040838503121561035157600080fd5b600083013567ffffffffffffffff81111561036b57600080fd5b610377858286016102c0565b925050602083013567ffffffffffffffff81111561039457600080fd5b6103a0858286016102ea565b9150509250929050565b6000602082840312156103bc57600080fd5b60006103ca84828501610314565b91505092915050565b6103dc816104cc565b82525050565b6103eb8161050a565b82525050565b600060208201905061040660008301846103d3565b92915050565b600060608201905061042160008301866103d3565b61042e60208301856103d3565b61043b60408301846103e2565b949350505050565b6000604051905081810181811067ffffffffffffffff8211171561046a5761046961058c565b5b8060405250919050565b600067ffffffffffffffff82111561048f5761048e61058c565b5b602082029050602081019050919050565b600067ffffffffffffffff8211156104bb576104ba61058c565b5b602082029050602081019050919050565b60006104d7826104ea565b9050919050565b60008115159050919050565b600073ffffffffffffffffffffffffffffffffffffffff82169050919050565b6000819050919050565b600061051f8261050a565b91507fffffffffffffffffffffffffffffffffffffffffffffffffffffffffffffffff8214156105525761055161055d565b5b600182019050919050565b7f4e487b7100000000000000000000000000000000000000000000000000000000600052601160045260246000fd5b7f4e487b7100000000000000000000000000000000000000000000000000000000600052604160045260246000fd5b6105c4816104cc565b81146105cf57600080fd5b50565b6105db816104de565b81146105e657600080fd5b50565b6105f28161050a565b81146105fd57600080fd5b5056fea2646970667358221220de4112c537356ecb0328372f96839340e038f02c2a9923a4569b2c0351dedb6564736f6c63430008000033",
  "immutableReferences": {},
  "source": "pragma solidity ^0.8.0;\n\nimport \"@openzeppelin/contracts/token/ERC20/ERC20.sol\";\n\ncontract CharacterGenerator {\n\n  address public receiver;\n\n  constructor(address _receiver) {\n    receiver = _receiver;\n  }\n\n  function generate(address[] memory tokenAddresses, uint256[] memory tokenQuantities) public {\n    for(uint i = 0; i < tokenAddresses.length; i++) {\n      ERC20 token = ERC20(tokenAddresses[i]);\n      token.transferFrom(msg.sender, address(this), tokenQuantities[i]);\n    }\n  }\n\n}",
  "sourcePath": "/Users/stephen/Projects/ill_intentioned/code/contracts/contracts/CharacterGenerator.sol",
  "compiler": {
    "name": "solc",
    "version": "0.8.0+commit.c7dfd78e.Emscripten.clang"
  },
  "schemaVersion": "3.4.1",
  "updatedAt": "2021-05-20T00:23:22.191Z",
  "networkType": "ethereum",
  "devdoc": {
    "kind": "dev",
    "methods": {},
    "version": 1
  },
  "userdoc": {
    "kind": "user",
    "methods": {},
    "version": 1
  }
}