{
  "contractName": "CharacterGenerator",
  "abi": [
    {
      "inputs": [
        {
          "internalType": "address",
          "name": "_owner",
          "type": "address"
        },
        {
          "internalType": "address",
          "name": "_receiver",
          "type": "address"
        }
      ],
      "stateMutability": "nonpayable",
      "type": "constructor"
    },
    {
      "inputs": [
        {
          "internalType": "bytes32",
          "name": "",
          "type": "bytes32"
        }
      ],
      "name": "combinationUsed",
      "outputs": [
        {
          "internalType": "bool",
          "name": "",
          "type": "bool"
        }
      ],
      "stateMutability": "view",
      "type": "function",
      "constant": true
    },
    {
      "inputs": [],
      "name": "owner",
      "outputs": [
        {
          "internalType": "address",
          "name": "",
          "type": "address"
        }
      ],
      "stateMutability": "view",
      "type": "function",
      "constant": true
    },
    {
      "inputs": [],
      "name": "receiver",
      "outputs": [
        {
          "internalType": "address",
          "name": "",
          "type": "address"
        }
      ],
      "stateMutability": "view",
      "type": "function",
      "constant": true
    },
    {
      "inputs": [
        {
          "internalType": "address[]",
          "name": "tokenAddresses",
          "type": "address[]"
        },
        {
          "internalType": "uint256[]",
          "name": "tokenQuantities",
          "type": "uint256[]"
        },
        {
          "internalType": "address",
          "name": "taker",
          "type": "address"
        },
        {
          "internalType": "bytes",
          "name": "signature",
          "type": "bytes"
        }
      ],
      "name": "generate",
      "outputs": [],
      "stateMutability": "nonpayable",
      "type": "function"
    }
  ],
  "bytecode": "0x60806040523480156200001157600080fd5b5060405162001637380380620016378339818101604052810190620000379190620000d7565b806000806101000a81548173ffffffffffffffffffffffffffffffffffffffff021916908373ffffffffffffffffffffffffffffffffffffffff16021790555081600160006101000a81548173ffffffffffffffffffffffffffffffffffffffff021916908373ffffffffffffffffffffffffffffffffffffffff160217905550505062000166565b600081519050620000d1816200014c565b92915050565b60008060408385031215620000eb57600080fd5b6000620000fb85828601620000c0565b92505060206200010e85828601620000c0565b9150509250929050565b600062000125826200012c565b9050919050565b600073ffffffffffffffffffffffffffffffffffffffff82169050919050565b620001578162000118565b81146200016357600080fd5b50565b6114c180620001766000396000f3fe608060405234801561001057600080fd5b506004361061004c5760003560e01c806366adc723146100515780638da5cb5b14610081578063b63d86781461009f578063f7260d3e146100bb575b600080fd5b61006b60048036038101906100669190610b17565b6100d9565b6040516100789190611064565b60405180910390f35b6100896100f9565b6040516100969190610fe9565b60405180910390f35b6100b960048036038101906100b49190610a43565b61011f565b005b6100c361059d565b6040516100d09190610fe9565b60405180910390f35b60026020528060005260406000206000915054906101000a900460ff1681565b600160009054906101000a900473ffffffffffffffffffffffffffffffffffffffff1681565b6000826040516020016101329190610f84565b604051602081830303815290604052805190602001209050600061016783610159846105c1565b6105f190919063ffffffff16565b9050600160009054906101000a900473ffffffffffffffffffffffffffffffffffffffff1673ffffffffffffffffffffffffffffffffffffffff168173ffffffffffffffffffffffffffffffffffffffff16146101c357600080fd5b3373ffffffffffffffffffffffffffffffffffffffff168473ffffffffffffffffffffffffffffffffffffffff1614610231576040517f08c379a000000000000000000000000000000000000000000000000000000000815260040161022890611184565b60405180910390fd5b60008686604051602001610246929190610f9f565b6040516020818303038152906040528051906020012090506002600082815260200190815260200160002060009054906101000a900460ff16156102bf576040517f08c379a00000000000000000000000000000000000000000000000000000000081526004016102b690611164565b60405180910390fd5b60016002600083815260200190815260200160002060006101000a81548160ff02191690831515021790555060005b875181101561045d576000888281518110610332577f4e487b7100000000000000000000000000000000000000000000000000000000600052603260045260246000fd5b60200260200101519050878281518110610375577f4e487b7100000000000000000000000000000000000000000000000000000000600052603260045260246000fd5b60200260200101518173ffffffffffffffffffffffffffffffffffffffff1663dd62ed3e33306040518363ffffffff1660e01b81526004016103b8929190611004565b60206040518083038186803b1580156103d057600080fd5b505afa1580156103e4573d6000803e3d6000fd5b505050506040513d601f19601f820116820180604052508101906104089190610b40565b1015610449576040517f08c379a000000000000000000000000000000000000000000000000000000000815260040161044090611104565b60405180910390fd5b5080806104559061134d565b9150506102ee565b5060005b87518110156105935760008882815181106104a5577f4e487b7100000000000000000000000000000000000000000000000000000000600052603260045260246000fd5b602002602001015190508073ffffffffffffffffffffffffffffffffffffffff166323b872dd33308b8681518110610506577f4e487b7100000000000000000000000000000000000000000000000000000000600052603260045260246000fd5b60200260200101516040518463ffffffff1660e01b815260040161052c9392919061102d565b602060405180830381600087803b15801561054657600080fd5b505af115801561055a573d6000803e3d6000fd5b505050506040513d601f19601f8201168201806040525081019061057e9190610aee565b5050808061058b9061134d565b915050610461565b5050505050505050565b60008054906101000a900473ffffffffffffffffffffffffffffffffffffffff1681565b6000816040516020016105d49190610fc3565b604051602081830303815290604052805190602001209050919050565b60008060008060418551141561061e576020850151925060408501519150606085015160001a90506106a4565b604085511415610668576040850151602086015193507f7fffffffffffffffffffffffffffffffffffffffffffffffffffffffffffffff81169250601b8160ff1c019150506106a3565b6040517f08c379a000000000000000000000000000000000000000000000000000000000815260040161069a906110e4565b60405180910390fd5b5b6106b0868285856106bb565b935050505092915050565b60007f7fffffffffffffffffffffffffffffff5d576e7357a4501ddfe92f46681b20a08260001c1115610723576040517f08c379a000000000000000000000000000000000000000000000000000000000815260040161071a90611124565b60405180910390fd5b601b8460ff1614806107385750601c8460ff16145b610777576040517f08c379a000000000000000000000000000000000000000000000000000000000815260040161076e90611144565b60405180910390fd5b60006001868686866040516000815260200160405260405161079c949392919061107f565b6020604051602081039080840390855afa1580156107be573d6000803e3d6000fd5b505050602060405103519050600073ffffffffffffffffffffffffffffffffffffffff168173ffffffffffffffffffffffffffffffffffffffff16141561083a576040517f08c379a0000000000000000000000000000000000000000000000000000000008152600401610831906110c4565b60405180910390fd5b80915050949350505050565b6000610859610854846111d5565b6111a4565b9050808382526020820190508285602086028201111561087857600080fd5b60005b858110156108a8578161088e888261095c565b84526020840193506020830192505060018101905061087b565b5050509392505050565b60006108c56108c084611201565b6111a4565b905080838252602082019050828560208602820111156108e457600080fd5b60005b8581101561091457816108fa8882610a19565b8452602084019350602083019250506001810190506108e7565b5050509392505050565b600061093161092c8461122d565b6111a4565b90508281526020810184848401111561094957600080fd5b61095484828561133e565b509392505050565b60008135905061096b8161142f565b92915050565b600082601f83011261098257600080fd5b8135610992848260208601610846565b91505092915050565b600082601f8301126109ac57600080fd5b81356109bc8482602086016108b2565b91505092915050565b6000815190506109d481611446565b92915050565b6000813590506109e98161145d565b92915050565b600082601f830112610a0057600080fd5b8135610a1084826020860161091e565b91505092915050565b600081359050610a2881611474565b92915050565b600081519050610a3d81611474565b92915050565b60008060008060808587031215610a5957600080fd5b600085013567ffffffffffffffff811115610a7357600080fd5b610a7f87828801610971565b945050602085013567ffffffffffffffff811115610a9c57600080fd5b610aa88782880161099b565b9350506040610ab98782880161095c565b925050606085013567ffffffffffffffff811115610ad657600080fd5b610ae2878288016109ef565b91505092959194509250565b600060208284031215610b0057600080fd5b6000610b0e848285016109c5565b91505092915050565b600060208284031215610b2957600080fd5b6000610b37848285016109da565b91505092915050565b600060208284031215610b5257600080fd5b6000610b6084828501610a2e565b91505092915050565b6000610b758383610ba8565b60208301905092915050565b6000610b8d8383610f66565b60208301905092915050565b610ba2816112df565b82525050565b610bb1816112df565b82525050565b610bc8610bc3826112df565b611396565b82525050565b6000610bd98261127d565b610be381856112ad565b9350610bee8361125d565b8060005b83811015610c1f578151610c068882610b69565b9750610c1183611293565b925050600181019050610bf2565b5085935050505092915050565b6000610c3782611288565b610c4181856112b8565b9350610c4c8361126d565b8060005b83811015610c7d578151610c648882610b81565b9750610c6f836112a0565b925050600181019050610c50565b5085935050505092915050565b610c93816112f1565b82525050565b610ca2816112fd565b82525050565b610cb9610cb4826112fd565b6113a8565b82525050565b6000610ccc6018836112c3565b91507f45434453413a20696e76616c6964207369676e617475726500000000000000006000830152602082019050919050565b6000610d0c601f836112c3565b91507f45434453413a20696e76616c6964207369676e6174757265206c656e677468006000830152602082019050919050565b6000610d4c601c836112d4565b91507f19457468657265756d205369676e6564204d6573736167653a0a3332000000006000830152601c82019050919050565b6000610d8c601e836112c3565b91507f496e737566666963656e7420416c6c6f77616e63652050726f766964656400006000830152602082019050919050565b6000610dcc6022836112c3565b91507f45434453413a20696e76616c6964207369676e6174757265202773272076616c60008301527f75650000000000000000000000000000000000000000000000000000000000006020830152604082019050919050565b6000610e326022836112c3565b91507f45434453413a20696e76616c6964207369676e6174757265202776272076616c60008301527f75650000000000000000000000000000000000000000000000000000000000006020830152604082019050919050565b6000610e986027836112c3565b91507f546f6b656e20436f6d62696e6174696f6e2048617320416c726561647920426560008301527f656e2055736564000000000000000000000000000000000000000000000000006020830152604082019050919050565b6000610efe6037836112c3565b91507f43616e6e6f742050726f63657373205472616e73616374696f6e20496e74656e60008301527f64656420466f7220416e6f7468657220416464726573730000000000000000006020830152604082019050919050565b610f6081611327565b82525050565b610f6f81611327565b82525050565b610f7e81611331565b82525050565b6000610f908284610bb7565b60148201915081905092915050565b6000610fab8285610bce565b9150610fb78284610c2c565b91508190509392505050565b6000610fce82610d3f565b9150610fda8284610ca8565b60208201915081905092915050565b6000602082019050610ffe6000830184610b99565b92915050565b60006040820190506110196000830185610b99565b6110266020830184610b99565b9392505050565b60006060820190506110426000830186610b99565b61104f6020830185610b99565b61105c6040830184610f57565b949350505050565b60006020820190506110796000830184610c8a565b92915050565b60006080820190506110946000830187610c99565b6110a16020830186610f75565b6110ae6040830185610c99565b6110bb6060830184610c99565b95945050505050565b600060208201905081810360008301526110dd81610cbf565b9050919050565b600060208201905081810360008301526110fd81610cff565b9050919050565b6000602082019050818103600083015261111d81610d7f565b9050919050565b6000602082019050818103600083015261113d81610dbf565b9050919050565b6000602082019050818103600083015261115d81610e25565b9050919050565b6000602082019050818103600083015261117d81610e8b565b9050919050565b6000602082019050818103600083015261119d81610ef1565b9050919050565b6000604051905081810181811067ffffffffffffffff821117156111cb576111ca6113f3565b5b8060405250919050565b600067ffffffffffffffff8211156111f0576111ef6113f3565b5b602082029050602081019050919050565b600067ffffffffffffffff82111561121c5761121b6113f3565b5b602082029050602081019050919050565b600067ffffffffffffffff821115611248576112476113f3565b5b601f19601f8301169050602081019050919050565b6000819050602082019050919050565b6000819050602082019050919050565b600081519050919050565b600081519050919050565b6000602082019050919050565b6000602082019050919050565b600081905092915050565b600081905092915050565b600082825260208201905092915050565b600081905092915050565b60006112ea82611307565b9050919050565b60008115159050919050565b6000819050919050565b600073ffffffffffffffffffffffffffffffffffffffff82169050919050565b6000819050919050565b600060ff82169050919050565b82818337600083830152505050565b600061135882611327565b91507fffffffffffffffffffffffffffffffffffffffffffffffffffffffffffffffff82141561138b5761138a6113c4565b5b600182019050919050565b60006113a1826113b2565b9050919050565b6000819050919050565b60006113bd82611422565b9050919050565b7f4e487b7100000000000000000000000000000000000000000000000000000000600052601160045260246000fd5b7f4e487b7100000000000000000000000000000000000000000000000000000000600052604160045260246000fd5b60008160601b9050919050565b611438816112df565b811461144357600080fd5b50565b61144f816112f1565b811461145a57600080fd5b50565b611466816112fd565b811461147157600080fd5b50565b61147d81611327565b811461148857600080fd5b5056fea26469706673582212204f407f13c6e30d416395c32b6c4b5a9d9fb7d92b3ff82dfdce5dd7bed04bf6ce64736f6c63430008000033",
  "immutableReferences": {},
  "source": "pragma solidity ^0.8.0;\n\nimport \"@openzeppelin/contracts/token/ERC20/ERC20.sol\";\nimport \"@openzeppelin/contracts/utils/cryptography/ECDSA.sol\";\n\ncontract CharacterGenerator {\n  using ECDSA for bytes32;\n\n  address public receiver;\n  address public owner;\n  mapping(bytes32 => bool) public combinationUsed;\n\n  constructor(address _owner, address _receiver) {\n    receiver = _receiver;\n    owner = _owner;\n  }\n\n  function generate(\n    address[] memory tokenAddresses, \n    uint256[] memory tokenQuantities, \n    address taker,\n    bytes memory signature\n  ) public {\n    bytes32 hash = keccak256(abi.encodePacked(taker));\n    address signer = hash.toEthSignedMessageHash().recover(signature);\n    \n    require(signer == owner);\n    // Only the specified taker can run this function\n    require(taker == msg.sender, \"Cannot Process Transaction Intended For Another Address\");\n\n    // NOTE: Assumes we always sort tokens the same way when signing!\n    bytes32 tokenComboHash = keccak256(abi.encodePacked(tokenAddresses, tokenQuantities));\n    require(!combinationUsed[tokenComboHash], \"Token Combination Has Already Been Used\");\n    combinationUsed[tokenComboHash] = true;\n\n\n    // Check approvals for all tokens before executing transfers\n    for(uint i = 0; i < tokenAddresses.length; i++) {\n      ERC20 token = ERC20(tokenAddresses[i]);\n      require(token.allowance(msg.sender, address(this)) >= tokenQuantities[i], \"Insufficent Allowance Provided\");\n    }\n\n    // Transfer all tokens to self\n    for(uint i = 0; i < tokenAddresses.length; i++) {\n      ERC20 token = ERC20(tokenAddresses[i]);\n      token.transferFrom(msg.sender, address(this), tokenQuantities[i]);\n    }\n  }\n\n}",
  "sourcePath": "/Users/stephen/Projects/ill_intentioned/code/contracts/contracts/CharacterGenerator.sol",
  "compiler": {
    "name": "solc",
    "version": "0.8.0+commit.c7dfd78e.Emscripten.clang"
  },
  "schemaVersion": "3.4.1",
  "updatedAt": "2021-05-27T18:43:14.185Z",
  "networkType": "ethereum",
  "devdoc": {
    "kind": "dev",
    "methods": {},
    "version": 1
  },
  "userdoc": {
    "kind": "user",
    "methods": {},
    "version": 1
  }
}